:040000000128F42FB0
:1000A2003A3400342E3400342534643400340D34B0
:1000B2000A340034F00023009E1C5C2870089A0069
:1000C2000800203476344134763467343A342034AC
:1000D2000034533474346134743465343A34203423
:1000E20000340B30F0006230890B7528F00B752854
:1000F20000320800203476345034653461346B3475
:100102003A34203400342034433468346134723455
:10011200673465343A3420340034013400340A340C
:10012200003464340034E8340334103427340630A5
:10013200F1001330F000AE30890B9D28F00B9D28A2
:10014200F10B9D2808002B08A3002A08A200290809
:10015200A1002808A0007D2223001D1208002930DA
:10016200F1009630F0007F30890BB528F00BB528EE
:10017200F10BB528000008005530A0008030A10026
:100182003008A3002F08A20031306D243130F10075
:100192000030F200F82008000030E1200130662132
:1001A2007108803A2000BC0080303C02031DDB282D
:1001B200643070020318DF280030080001300800A4
:1001C2002000BB00BB093B08031DEC28EF30BA003E
:1001D2003A088C0508003B0A031DF1280C1608009A
:1001E2003B08BA003A08AC00023030250800F4019E
:1001F200F5017108740784007208753D85001200CC
:10020200031908007108740784007208753D85009F
:1002120000085B200130F4070030F53DFA28FB01AD
:10022200FC01771C18297908FB077A08FC3D01308C
:10023200F935FA0D890B19290130F836F70C890BBB
:100242001E2977087804031D12297C08F8007B0810
:10025200F7000800F0302100990072201B302100C5
:10026200970020008C0122008C0123008C010E30AB
:1002720021008C0022009D1427302000CB004B0867
:1002820026008C0517227226442953346D346134BA
:1002920072347434203443346834613472346734D1
:1002A200653472342034763431342E3430340D34A3
:1002B2000A340034203450346C346134743465347C
:1002C200613475343A3420340034F5007508F20094
:1002D2000130F235FF3E031D6A29723521009D006F
:1002E2001D0801389D000B30F2006230890B77291E
:1002F200F20B7729003221001D0802389D009D185B
:1003020080291D08FE399D001C08F4001B08F3001B
:100312007408F1007308F0000800780879040319E2
:10032200B529FD01FD0AF91BA0290130F835F90DA7
:10033200890B97290130FC007C08FD079429790874
:100342007B02031DA62978087A02031CAC297808CF
:10035200FA027908FB3B0130F936F80C890BAD291A
:100362000130FD02031DA0297B08F9007A08F8007C
:100372000800F20004307202031808000130F00095
:10038200720AC429F035890BC3297008F10071087B
:1003920021008C040130F000720AD029F035890B5B
:1003A200CF297008F100710823008C04F03021007D
:1003B2009E000130F000720ADF29F035890BDE2938
:1003C2007008FF3AF100710824008C050800003023
:1003D200AB000030AA000030A9000030A800201CA9
:1003E200FA292408A8072508A93D2608AA3D2708B6
:1003F200AB3D0130A435A50DA60DA70D890BFB2938
:100402000130A336A20CA10CA00C890B022A2308EE
:10041200220421042004031DF0292B08A3002A082A
:10042200A2002908A1002808A00008006400722088
:100432000130BA2100302000AB000030AA00253084
:10044200A9008030A800A4204630F1008130F200DB
:10045200F8200030E120CD20003A031D0800FF30D3
:10046200E120B020013066217108803A2000BD00F1
:1004720081303D02031D3F2AF43070020318462AE0
:10048200FF302000BD003D08D4000030E12008000C
:10049200F501F601700871040319782AF701F70AC9
:1004A200F11B5D2A0130F035F10D890B542A013020
:1004B200F4007408F707512A0130F535F60D890B5F
:1004C2005E2A71087302031D682A70087202031CF7
:1004D2006F2A7008F2027108F33B75140130F1368D
:1004E200F00C890B702A0130F702031D5D2A760891
:1004F200F1007508F000080023001E129F151E155A
:1005020020002308031D0800123021027A30223B0A
:10051200031808002308F3002208F2002108F10062
:100522002008F0000030F7007A30F6001230F500B3
:100532000030F400C6237108A7007008A600260840
:10054200FF3EA400FF30273DA500240823009B00A6
:100552002000250823009C009D171D169E160800EA
:10056200033051028530031950020318C32A71085F
:10057200803AF20083307202031DC12AB730700242
:10058200031CC82A0430F20072082000D40071084B
:1005920020005302031DCF2A700852020318D82AE2
:1005A200D001D1017108D3007008D2000800700890
:1005B2005202F2007108533BF30000307302043020
:1005C20003197202031CEA2A0430F2007208D400F2
:1005D20008000130D0070030D13D08003330F70069
:1005E2000030F8003C08FA003B08F900752378084F
:1005F200BE007708BD003C08F3003B08F200333030
:10060200F0000030F10030237035F700710DF80072
:100612006430F9000030FA0010217808C000770831
:10062200BF003330F7000030F8004008FA003F08FE
:10063200F90075237808C0007708BF003E08B000B3
:100642003D08AF00BD205330F1008030F200F820A9
:1006520020004008B0003F08AF00BD200800F601AE
:10066200F31F3A2BF209F309F20A0319F30AF6010E
:10067200F60AF11F412BF009F109F00A0319F10AF8
:10068200700871040319682BF501F50AF11B532B4D
:100692000130F035F10D890B4A2B0130F40074085A
:1006A200F507472B71087302031D592B700872025C
:1006B200031C5F2B7008F2027108F33B0130F13624
:1006C200F00C890B602B0130F502031D532B7608C9
:1006D2000319702BF209F309F20A0319F30A7308DA
:1006E200F1007208F0000800A101F81F7F2BF70942
:1006F200F809F70A0319F80AA101A10AFA1F8A2BBD
:10070200F909FA09F90A0319FA0A0130FB007B0810
:10071200A106A201A301770878040319B92BA0014D
:10072200A00AF81B9E2B0130F735F80D890B952B8B
:100732000130FB007B08A007922B0130A235A30DEC
:10074200890B9F2B78087A02031DA92B770879025F
:10075200031CB02B7708F9027808FA3B2214013007
:10076200F836F70C890BB12B0130A002031D9E2B2A
:1007720021080319C12BA209A309A20A0319A30A7A
:100782002308F8002208F70008000030FC000030BF
:10079200FB000030FA000030F900730872047104A3
:1007A200700403190F2CFD01FD0AF31BE42B013029
:1007B200F035F10DF20DF30D890BD92B0130F80054
:1007C2007808FD07D62B0130F935FA0DFB0DFC0D2B
:1007D200890BE52B73087702031DF92B7208760249
:1007E200031DF92B71087502031DF92B70087402A1
:1007F200031C042C7008F4027108F53B7208F63BE6
:100802007308F73B79140130F336F20CF10CF00C5B
:10081200890B052C0130FD02031DE42B7C08F3003B
:100822007B08F2007A08F1007908F0000800103025
:10083200F7000E30F8003C08FA003B08F900752377
:100842007708BD003D08BF003C30F7000030F800DB
:100852003C08F3003B08F2001030F0000E30F100CB
:1008620030237108FA007008F90075237708BD007B
:100872003D08C0003C30F0000030F1003C08F300BD
:100882003B08F20030237008BD003D08C1003F085C
:10089200BD00BE013D08AF003E08B000BD20513092
:1008A200F1008030F200F82020004008BD00BE01B7
:1008B2003D08AF003E08B000BD205130F10080304D
:1008C200F200F82020004108BD00BE013D08AF0043
:1008D2003E08B000BD200800AD002230A40024086C
:1008E200A8002108A5002008A400A00A0319A10A53
:1008F20024088400250885000008A6002608AE000A
:100902002E0803192B2D25302E060319942C2E08A0
:10091200A4002D0886008701240881000130A4006C
:100922002408AD07722CA9012108A5002008A40003
:10093200A00A0319A10A24088400250885000008DA
:10094200AE00003A03192B2D643A0319AC2C0D3A70
:100952000319AC2C722C280886008701403FAB009B
:10096200413FAC000230A4002408A807AC1FC22CEF
:100972000330A4002408A904AB09AC09AB0A03198B
:10098200AC0AAE01AE0A2E08A400A501A435A50D3D
:100992008E30240784008030253D8500003FA6006C
:1009A200013FA70027082C02031DD92C26082B0281
:1009B200031CE32C0130A4002408AE0705302E06E8
:1009C200031DC42C290803390319F22C2D30A4006D
:1009D2002D0886008701240881000130A400240824
:1009E200AD072E08A4002408AA00FF30A4002408A2
:1009F200AA072A0A0319722C0A30F8000030F900FB
:100A02002A08A400A501A435A50D8E302407840070
:100A12008030253D8500003FF000013FF1002C08A9
:100A2200F3002B08F20049227108FB007008FA005B
:100A32008E217808303EA6002608AE002E08A400BB
:100A42002D0886008701240881000130A4002408B3
:100A5200AD07F62C2D088600870181010800B5003C
:100A62000030B9000130B800E830B7004830B600B5
:100A7200662EE0303B009B009E0120003908F30007
:100A82003808F2003708F1003608F0000130F700AC
:100A9200E830F6004830F5000030F400C623700854
:100AA200FF3EAD00FF30713DAE002D083B009500CA
:100AB20020002E083B009600910192012000390887
:100AC200F3003808F2003708F1003608F000013070
:100AD200F700E830F6004830F5000030F400C62395
:100AE2007308A3007208A2007108A1007008A00098
:100AF2002C08AD00AE01AF01B0013008A7002F08ED
:100B0200A6002E08A5002D08A400E8212008B100A7
:100B12002108B2002208B3002308B4000830B4361A
:100B2200B30CB20CB10C890B902D32083B0094002F
:100B3200200031083B0093000800E0303B00AB008E
:100B4200AE0120003908F3003808F2003708F1003E
:100B52003608F0000130F700E830F6004830F500C2
:100B62000030F400C6237008FF3EAD00FF30713D37
:100B7200AE002D083B00A50020002E083B00A60079
:100B8200A101A20120003908F3003808F200370859
:100B9200F1003608F0000130F700E830F600483086
:100BA200F5000030F400C6237308A3007208A20007
:100BB2007108A1007008A0002C08AD00AE01AF01C1
:100BC200B0013008A7002F08A6002E08A5002D08A6
:100BD200A400E8212008B1002108B2002208B300D5
:100BE2002308B4000830B436B30CB20CB10C890B34
:100BF200F42D32083B00A400200031083B00A30082
:100C02000800E0303B00BB00BE0120003908F300C1
:100C12003808F2003708F1003608F0000130F7001A
:100C2200E830F6004830F5000030F400C6237008C2
:100C3200FF3EAD00FF30713DAE002D083B00B50018
:100C420020002E083B00B600B101B2012000390895
:100C5200F3003808F2003708F1003608F0000130DE
:100C6200F700E830F6004830F5000030F400C62303
:100C72007308A3007208A2007108A1007008A00006
:100C82002C08AD00AE01AF01B0013008A7002F085B
:100C9200A6002E08A5002D08A400E8212008B10016
:100CA2002108B2002208B3002308B4000830B43689
:100CB200B30CB20CB10C890B582E32083B00B400B5
:100CC200200031083B00B30008003508013A03193F
:100CD2003A2D033A03199E2D013A0319022E712E61
:100CE20008002000C901CA0164009F2F0030E120E2
:100CF200DF302000C20042088C05B020CD20003A2F
:100D02000319B42F2000D401D40AB42F8C16C401C5
:100D120098200130662170082000C9077108CA3D79
:100D22000130C2004208C40708304402031C892E65
:100D32004A08C3004908C200430DC30CC20C430D4C
:100D4200C30CC20C430DC30CC20C4208C9004308B9
:100D5200CA000130CC070030CD3D0030CE3D00301E
:100D6200CF3D4F08031DBF2E4E08031DBF2E4D0859
:100D7200031DBF2E03304C02031CB42F02309B2FE5
:100D82002030C20042088C064C30E1202000C50110
:100D920098200130662170082000C9077108CA3DF9
:100DA2000130C2004208C50708304502031CC92EA3
:100DB2004A08C3004908C200430DC30CC20C430DCC
:100DC200C30CC20C430DC30CC20C4208C900430839
:100DD200CA000130CC070030CD3D0030CE3D00309E
:100DE200CF3D4A08F1004908F000B1224F08031D27
:100DF200042F4E08031D042F4D08031D042FF1304C
:100E02004C02031CB42F03309B2FFF30E120200043
:100E1200C60198200130662170082000C9077108B8
:100E2200CA3D2030C20042088C060130C20042088E
:100E3200C60708304602031C0A2F4A08C3004908A5
:100E4200C200430DC30CC20C430DC30CC20C430DB4
:100E5200C30CC20C4208C9004308CA000130CC07C7
:100E62000030CD3D0030CE3D0030CF3D4A08F1008C
:100E72004908F000B1224F08031D482F4E08031DF8
:100E8200482F31304C022A304D3B031CB42F043022
:100E92009B2FDF30C20042088C051030E120200079
:100EA200C70198200130662170082000C907710827
:100EB200CA3D0130C2004208C70708304702031C7E
:100EC200522F4A08C3004908C200430DC30CC20C8A
:100ED200430DC30CC20C430DC30CC20C4208C90023
:100EE2004308CA004A08F1004908F000B122013063
:100EF200CC070030CD3D0030CE3D0030CF3DCD207F
:100F0200003A031DB42F2000D401B42F0030E12099
:100F120020302000C20042088C06C8017220013035
:100F22002000C2004208C807143048020318B42F38
:100F32008F2FFF30C2004208D400B42F2000540883
:100F4200003A0319772E013A0319872E033A03193F
:100F5200C12E013A0319062F073A03194A2FFB3A09
:100F62000319872F9A2F6A30F1008030F200F8209F
:100F720020005408C200C3014208AF004308B00079
:100F8200BD208430F1008030F200F82020004D08AE
:100F9200BC004C08BB0018245B30F1008130F20029
:100FA200F82020005108BC005008BB0018247B30F8
:100FB200F1008030F200F82020005308BC005208F3
:100FC200BB00EF226230F1008030F200F8202000F6
:100FD2004A08BC004908BB00EF225830F1008030BB
:100FE200F200F82008002000CC01CD01CE01CF0193
:0E0FF200D001D101D201D301D40120002B295E
:020000040001F9
:04000E00FCFFFFFEF6
:00000001FF
